S00C00004C4D33352E7372656317
S11300000C9434000C9451000C9451000C94510045
S11300100C9451000C9451000C9451000C94510018
S11300200C9451000C9451000C9451000C94510008
S11300300C9451000C9451000C9451000C945100F8
S11300400C9451000C9451000C9451000C945100E8
S11300500C9451000C9451000C9451000C945100D8
S11300600C9451000C94510011241FBECFEFD8E022
S1130070DEBFCDBF11E0A0E0B1E0E4EEF1E002C0EC
S113008005900D92AC30B107D9F721E0ACE0B1E0B6
S113009001C01D92AC30B207E1F70E9499000C94A4
S11300A0F0000C940000EAE7F0E087E0808380E44D
S11300B080937C00808180688083808180648083D9
S11300C00895ECE7F0E09081907F90839081892BF4
S11300D08083EAE7F0E0808180648083808186FD0C
S11300E0FDCF809178009091790008951092C50019
S11300F083E38093C40088E18093C10086E0809309
S1130100C2000895E0ECF0E0908195FFFDCF80936C
S1130110C6000895CF93DF93EC018881882331F0E2
S113012021960E94820089918111FBCFDF91CF91AA
S11301300895CF93DF9300D000D01F92CDB7DEB7E0
S11301400E9453000E9476008FEF87B980E00E94DE
S113015061004AE0BE016F5F7F4F8E5991090E9492
S1130160C60080E091E00E948A00CE0101960E94C0
S11301708A008DE00E9482002FEF81EE94E02150EE
S113018080409040E1F700C00000E0CFBB27FB01B6
S11301905527AA27880F991FAA1FA41710F0A41B7C
S11301A083955051B9F7A05DAA3308F0A95DA193D6
S11301B0009779F7B111B1931192CB010C94E0003F
S11301C0DC01FC01672F71917723E1F7329704C0BA
S11301D07C916D9370836291AE17BF07C8F3089545
S10701E0F894FFCFBD
S10F01E476616C7565206973203A000098
S9030000FC
