S011000054696D65436F756E742E737265637B
S11300000C9434000C9446000C9446000C94460066
S11300100C9446000C9446000C9446000C94460044
S11300200C9446000C9446000C9446000C94460034
S11300300C9446000C9446000C9446000C94460024
S11300400C9448000C9446000C9446000C94460012
S11300500C9446000C9446000C9446000C94460004
S11300600C9446000C94460011241FBECFEFD8E038
S1130070DEBFCDBF21E0A0E0B1E001C01D92A13000
S1130080B207E1F70E9465000C9470000C94000024
S11300901F920F920FB60F9211248F939F9380910A
S11300A000018F5F80930001809100018D3730F053
S11300B01092000195B180E2892785B99F918F91B3
S11300C00F900FBE0F901F90189580E284B985B5EC
S11300D0816085BD81E085BB80936E007894FFCFFD
S10700E0F894FFCFBE
S9030000FC
